{
  "contractName": "Token",
  "abi": [
    {
      "inputs": [
        {
          "internalType": "string",
          "name": "name",
          "type": "string"
        },
        {
          "internalType": "string",
          "name": "symbol",
          "type": "string"
        }
      ],
      "stateMutability": "nonpayable",
      "type": "constructor"
    },
    {
      "anonymous": false,
      "inputs": [
        {
          "indexed": true,
          "internalType": "address",
          "name": "owner",
          "type": "address"
        },
        {
          "indexed": true,
          "internalType": "address",
          "name": "approved",
          "type": "address"
        },
        {
          "indexed": true,
          "internalType": "uint256",
          "name": "tokenId",
          "type": "uint256"
        }
      ],
      "name": "Approval",
      "type": "event"
    },
    {
      "anonymous": false,
      "inputs": [
        {
          "indexed": true,
          "internalType": "address",
          "name": "owner",
          "type": "address"
        },
        {
          "indexed": true,
          "internalType": "address",
          "name": "operator",
          "type": "address"
        },
        {
          "indexed": false,
          "internalType": "bool",
          "name": "approved",
          "type": "bool"
        }
      ],
      "name": "ApprovalForAll",
      "type": "event"
    },
    {
      "anonymous": false,
      "inputs": [
        {
          "indexed": true,
          "internalType": "address",
          "name": "previousOwner",
          "type": "address"
        },
        {
          "indexed": true,
          "internalType": "address",
          "name": "newOwner",
          "type": "address"
        }
      ],
      "name": "OwnershipTransferred",
      "type": "event"
    },
    {
      "anonymous": false,
      "inputs": [
        {
          "indexed": true,
          "internalType": "address",
          "name": "from",
          "type": "address"
        },
        {
          "indexed": true,
          "internalType": "address",
          "name": "to",
          "type": "address"
        },
        {
          "indexed": true,
          "internalType": "uint256",
          "name": "tokenId",
          "type": "uint256"
        }
      ],
      "name": "Transfer",
      "type": "event"
    },
    {
      "inputs": [
        {
          "internalType": "address",
          "name": "to",
          "type": "address"
        },
        {
          "internalType": "uint256",
          "name": "tokenId",
          "type": "uint256"
        }
      ],
      "name": "approve",
      "outputs": [],
      "stateMutability": "nonpayable",
      "type": "function"
    },
    {
      "inputs": [
        {
          "internalType": "address",
          "name": "owner",
          "type": "address"
        }
      ],
      "name": "balanceOf",
      "outputs": [
        {
          "internalType": "uint256",
          "name": "",
          "type": "uint256"
        }
      ],
      "stateMutability": "view",
      "type": "function",
      "constant": true
    },
    {
      "inputs": [
        {
          "internalType": "uint256",
          "name": "tokenId",
          "type": "uint256"
        }
      ],
      "name": "getApproved",
      "outputs": [
        {
          "internalType": "address",
          "name": "",
          "type": "address"
        }
      ],
      "stateMutability": "view",
      "type": "function",
      "constant": true
    },
    {
      "inputs": [
        {
          "internalType": "address",
          "name": "owner",
          "type": "address"
        },
        {
          "internalType": "address",
          "name": "operator",
          "type": "address"
        }
      ],
      "name": "isApprovedForAll",
      "outputs": [
        {
          "internalType": "bool",
          "name": "",
          "type": "bool"
        }
      ],
      "stateMutability": "view",
      "type": "function",
      "constant": true
    },
    {
      "inputs": [],
      "name": "name",
      "outputs": [
        {
          "internalType": "string",
          "name": "",
          "type": "string"
        }
      ],
      "stateMutability": "view",
      "type": "function",
      "constant": true
    },
    {
      "inputs": [],
      "name": "owner",
      "outputs": [
        {
          "internalType": "address",
          "name": "",
          "type": "address"
        }
      ],
      "stateMutability": "view",
      "type": "function",
      "constant": true
    },
    {
      "inputs": [
        {
          "internalType": "uint256",
          "name": "tokenId",
          "type": "uint256"
        }
      ],
      "name": "ownerOf",
      "outputs": [
        {
          "internalType": "address",
          "name": "",
          "type": "address"
        }
      ],
      "stateMutability": "view",
      "type": "function",
      "constant": true
    },
    {
      "inputs": [],
      "name": "renounceOwnership",
      "outputs": [],
      "stateMutability": "nonpayable",
      "type": "function"
    },
    {
      "inputs": [
        {
          "internalType": "address",
          "name": "from",
          "type": "address"
        },
        {
          "internalType": "address",
          "name": "to",
          "type": "address"
        },
        {
          "internalType": "uint256",
          "name": "tokenId",
          "type": "uint256"
        }
      ],
      "name": "safeTransferFrom",
      "outputs": [],
      "stateMutability": "nonpayable",
      "type": "function"
    },
    {
      "inputs": [
        {
          "internalType": "address",
          "name": "from",
          "type": "address"
        },
        {
          "internalType": "address",
          "name": "to",
          "type": "address"
        },
        {
          "internalType": "uint256",
          "name": "tokenId",
          "type": "uint256"
        },
        {
          "internalType": "bytes",
          "name": "_data",
          "type": "bytes"
        }
      ],
      "name": "safeTransferFrom",
      "outputs": [],
      "stateMutability": "nonpayable",
      "type": "function"
    },
    {
      "inputs": [
        {
          "internalType": "address",
          "name": "operator",
          "type": "address"
        },
        {
          "internalType": "bool",
          "name": "approved",
          "type": "bool"
        }
      ],
      "name": "setApprovalForAll",
      "outputs": [],
      "stateMutability": "nonpayable",
      "type": "function"
    },
    {
      "inputs": [
        {
          "internalType": "bytes4",
          "name": "interfaceId",
          "type": "bytes4"
        }
      ],
      "name": "supportsInterface",
      "outputs": [
        {
          "internalType": "bool",
          "name": "",
          "type": "bool"
        }
      ],
      "stateMutability": "view",
      "type": "function",
      "constant": true
    },
    {
      "inputs": [],
      "name": "symbol",
      "outputs": [
        {
          "internalType": "string",
          "name": "",
          "type": "string"
        }
      ],
      "stateMutability": "view",
      "type": "function",
      "constant": true
    },
    {
      "inputs": [
        {
          "internalType": "uint256",
          "name": "tokenId",
          "type": "uint256"
        }
      ],
      "name": "tokenURI",
      "outputs": [
        {
          "internalType": "string",
          "name": "",
          "type": "string"
        }
      ],
      "stateMutability": "view",
      "type": "function",
      "constant": true
    },
    {
      "inputs": [
        {
          "internalType": "address",
          "name": "from",
          "type": "address"
        },
        {
          "internalType": "address",
          "name": "to",
          "type": "address"
        },
        {
          "internalType": "uint256",
          "name": "tokenId",
          "type": "uint256"
        }
      ],
      "name": "transferFrom",
      "outputs": [],
      "stateMutability": "nonpayable",
      "type": "function"
    },
    {
      "inputs": [
        {
          "internalType": "address",
          "name": "newOwner",
          "type": "address"
        }
      ],
      "name": "transferOwnership",
      "outputs": [],
      "stateMutability": "nonpayable",
      "type": "function"
    },
    {
      "inputs": [
        {
          "internalType": "uint256",
          "name": "tokenId",
          "type": "uint256"
        }
      ],
      "name": "getTokenDetails",
      "outputs": [
        {
          "components": [
            {
              "internalType": "uint8",
              "name": "damage",
              "type": "uint8"
            },
            {
              "internalType": "uint8",
              "name": "magic",
              "type": "uint8"
            },
            {
              "internalType": "uint256",
              "name": "lastMeal",
              "type": "uint256"
            },
            {
              "internalType": "uint256",
              "name": "endurance",
              "type": "uint256"
            }
          ],
          "internalType": "struct Token.Pet",
          "name": "",
          "type": "tuple"
        }
      ],
      "stateMutability": "view",
      "type": "function",
      "constant": true
    },
    {
      "inputs": [
        {
          "internalType": "uint8",
          "name": "damage",
          "type": "uint8"
        },
        {
          "internalType": "uint8",
          "name": "magic",
          "type": "uint8"
        },
        {
          "internalType": "uint256",
          "name": "endurance",
          "type": "uint256"
        }
      ],
      "name": "mint",
      "outputs": [],
      "stateMutability": "nonpayable",
      "type": "function"
    },
    {
      "inputs": [
        {
          "internalType": "uint256",
          "name": "tokenId",
          "type": "uint256"
        }
      ],
      "name": "feed",
      "outputs": [],
      "stateMutability": "nonpayable",
      "type": "function"
    }
  ],
  "bytecode": "0x608060405260006008553480156200001657600080fd5b5060405162002eec38038062002eec83398181016040528101906200003c91906200028a565b818181600090805190602001906200005692919062000168565b5080600190805190602001906200006f92919062000168565b50505062000092620000866200009a60201b60201c565b620000a260201b60201c565b50506200042e565b600033905090565b6000600660009054906101000a900473ffffffffffffffffffffffffffffffffffffffff16905081600660006101000a81548173ffffffffffffffffffffffffffffffffffffffff021916908373ffffffffffffffffffffffffffffffffffffffff1602179055508173ffffffffffffffffffffffffffffffffffffffff168173ffffffffffffffffffffffffffffffffffffffff167f8be0079c531659141344cd1fd0a4f28419497f9722a3daafe3b4186f6b6457e060405160405180910390a35050565b82805462000176906200039a565b90600052602060002090601f0160209004810192826200019a5760008555620001e6565b82601f10620001b557805160ff1916838001178555620001e6565b82800160010185558215620001e6579182015b82811115620001e5578251825591602001919060010190620001c8565b5b509050620001f59190620001f9565b5090565b5b8082111562000214576000816000905550600101620001fa565b5090565b60006200022f620002298462000331565b620002fd565b9050828152602081018484840111156200024857600080fd5b6200025584828562000364565b509392505050565b600082601f8301126200026f57600080fd5b81516200028184826020860162000218565b91505092915050565b600080604083850312156200029e57600080fd5b600083015167ffffffffffffffff811115620002b957600080fd5b620002c7858286016200025d565b925050602083015167ffffffffffffffff811115620002e557600080fd5b620002f3858286016200025d565b9150509250929050565b6000604051905081810181811067ffffffffffffffff82111715620003275762000326620003ff565b5b8060405250919050565b600067ffffffffffffffff8211156200034f576200034e620003ff565b5b601f19601f8301169050602081019050919050565b60005b838110156200038457808201518184015260208101905062000367565b8381111562000394576000848401525b50505050565b60006002820490506001821680620003b357607f821691505b60208210811415620003ca57620003c9620003d0565b5b50919050565b7f4e487b7100000000000000000000000000000000000000000000000000000000600052602260045260246000fd5b7f4e487b7100000000000000000000000000000000000000000000000000000000600052604160045260246000fd5b612aae806200043e6000396000f3fe608060405234801561001057600080fd5b50600436106101215760003560e01c80638da5cb5b116100ad578063c87b56dd11610071578063c87b56dd14610306578063e985e9c514610336578063eb22ed3214610366578063f2fde38b14610382578063f59dfdfb1461039e57610121565b80638da5cb5b1461026257806395d89b4114610280578063a22cb4651461029e578063b88d4fde146102ba578063c1e03728146102d657610121565b806323b872dd116100f457806323b872dd146101c057806342842e0e146101dc5780636352211e146101f857806370a0823114610228578063715018a61461025857610121565b806301ffc9a71461012657806306fdde0314610156578063081812fc14610174578063095ea7b3146101a4575b600080fd5b610140600480360381019061013b9190611c57565b6103ba565b60405161014d9190612437565b60405180910390f35b61015e61049c565b60405161016b9190612452565b60405180910390f35b61018e60048036038101906101899190611ca9565b61052e565b60405161019b91906123d0565b60405180910390f35b6101be60048036038101906101b99190611c1b565b6105b3565b005b6101da60048036038101906101d59190611b15565b6106cb565b005b6101f660048036038101906101f19190611b15565b61072b565b005b610212600480360381019061020d9190611ca9565b61074b565b60405161021f91906123d0565b60405180910390f35b610242600480360381019061023d9190611ab0565b6107fd565b60405161024f919061264f565b60405180910390f35b6102606108b5565b005b61026a61093d565b60405161027791906123d0565b60405180910390f35b610288610967565b6040516102959190612452565b60405180910390f35b6102b860048036038101906102b39190611bdf565b6109f9565b005b6102d460048036038101906102cf9190611b64565b610b7a565b005b6102f060048036038101906102eb9190611ca9565b610bdc565b6040516102fd9190612634565b60405180910390f35b610320600480360381019061031b9190611ca9565b610c57565b60405161032d9190612452565b60405180910390f35b610350600480360381019061034b9190611ad9565b610cfe565b60405161035d9190612437565b60405180910390f35b610380600480360381019061037b9190611cd2565b610d92565b005b61039c60048036038101906103979190611ab0565b610ec0565b005b6103b860048036038101906103b39190611ca9565b610fb8565b005b60007f80ac58cd000000000000000000000000000000000000000000000000000000007bffffffffffffffffffffffffffffffffffffffffffffffffffffffff1916827bffffffffffffffffffffffffffffffffffffffffffffffffffffffff1916148061048557507f5b5e139f000000000000000000000000000000000000000000000000000000007bffffffffffffffffffffffffffffffffffffffffffffffffffffffff1916827bffffffffffffffffffffffffffffffffffffffffffffffffffffffff1916145b80610495575061049482610ffd565b5b9050919050565b6060600080546104ab9061288c565b80601f01602080910402602001604051908101604052809291908181526020018280546104d79061288c565b80156105245780601f106104f957610100808354040283529160200191610524565b820191906000526020600020905b81548152906001019060200180831161050757829003601f168201915b5050505050905090565b600061053982611067565b610578576040517f08c379a000000000000000000000000000000000000000000000000000000000815260040161056f90612574565b60405180910390fd5b6004600083815260200190815260200160002060009054906101000a900473ffffffffffffffffffffffffffffffffffffffff169050919050565b60006105be8261074b565b90508073ffffffffffffffffffffffffffffffffffffffff168373ffffffffffffffffffffffffffffffffffffffff16141561062f576040517f08c379a0000000000000000000000000000000000000000000000000000000008152600401610626906125f4565b60405180910390fd5b8073ffffffffffffffffffffffffffffffffffffffff1661064e6110d3565b73ffffffffffffffffffffffffffffffffffffffff16148061067d575061067c816106776110d3565b610cfe565b5b6106bc576040517f08c379a00000000000000000000000000000000000000000000000000000000081526004016106b390612514565b60405180910390fd5b6106c683836110db565b505050565b6106dc6106d66110d3565b82611194565b61071b576040517f08c379a000000000000000000000000000000000000000000000000000000000815260040161071290612614565b60405180910390fd5b610726838383611272565b505050565b61074683838360405180602001604052806000815250610b7a565b505050565b6000806002600084815260200190815260200160002060009054906101000a900473ffffffffffffffffffffffffffffffffffffffff169050600073ffffffffffffffffffffffffffffffffffffffff168173ffffffffffffffffffffffffffffffffffffffff1614156107f4576040517f08c379a00000000000000000000000000000000000000000000000000000000081526004016107eb90612554565b60405180910390fd5b80915050919050565b60008073ffffffffffffffffffffffffffffffffffffffff168273ffffffffffffffffffffffffffffffffffffffff16141561086e576040517f08c379a000000000000000000000000000000000000000000000000000000000815260040161086590612534565b60405180910390fd5b600360008373ffffffffffffffffffffffffffffffffffffffff1673ffffffffffffffffffffffffffffffffffffffff168152602001908152602001600020549050919050565b6108bd6110d3565b73ffffffffffffffffffffffffffffffffffffffff166108db61093d565b73ffffffffffffffffffffffffffffffffffffffff1614610931576040517f08c379a000000000000000000000000000000000000000000000000000000000815260040161092890612594565b60405180910390fd5b61093b60006114ce565b565b6000600660009054906101000a900473ffffffffffffffffffffffffffffffffffffffff16905090565b6060600180546109769061288c565b80601f01602080910402602001604051908101604052809291908181526020018280546109a29061288c565b80156109ef5780601f106109c4576101008083540402835291602001916109ef565b820191906000526020600020905b8154815290600101906020018083116109d257829003601f168201915b5050505050905090565b610a016110d3565b73ffffffffffffffffffffffffffffffffffffffff168273ffffffffffffffffffffffffffffffffffffffff161415610a6f576040517f08c379a0000000000000000000000000000000000000000000000000000000008152600401610a66906124d4565b60405180910390fd5b8060056000610a7c6110d3565b73ffffffffffffffffffffffffffffffffffffffff1673ffffffffffffffffffffffffffffffffffffffff16815260200190815260200160002060008473ffffffffffffffffffffffffffffffffffffffff1673ffffffffffffffffffffffffffffffffffffffff16815260200190815260200160002060006101000a81548160ff0219169083151502179055508173ffffffffffffffffffffffffffffffffffffffff16610b296110d3565b73ffffffffffffffffffffffffffffffffffffffff167f17307eab39ab6107e8899845ad3d59bd9653f200f220920489ca2b5937696c3183604051610b6e9190612437565b60405180910390a35050565b610b8b610b856110d3565b83611194565b610bca576040517f08c379a0000000000000000000000000000000000000000000000000000000008152600401610bc190612614565b60405180910390fd5b610bd684848484611594565b50505050565b610be461199c565b600760008381526020019081526020016000206040518060800160405290816000820160009054906101000a900460ff1660ff1660ff1681526020016000820160019054906101000a900460ff1660ff1660ff168152602001600182015481526020016002820154815250509050919050565b6060610c6282611067565b610ca1576040517f08c379a0000000000000000000000000000000000000000000000000000000008152600401610c98906125d4565b60405180910390fd5b6000610cab6115f0565b90506000815111610ccb5760405180602001604052806000815250610cf6565b80610cd584611607565b604051602001610ce69291906123ac565b6040516020818303038152906040525b915050919050565b6000600560008473ffffffffffffffffffffffffffffffffffffffff1673ffffffffffffffffffffffffffffffffffffffff16815260200190815260200160002060008373ffffffffffffffffffffffffffffffffffffffff1673ffffffffffffffffffffffffffffffffffffffff16815260200190815260200160002060009054906101000a900460ff16905092915050565b610d9a6110d3565b73ffffffffffffffffffffffffffffffffffffffff16610db861093d565b73ffffffffffffffffffffffffffffffffffffffff1614610e0e576040517f08c379a0000000000000000000000000000000000000000000000000000000008152600401610e0590612594565b60405180910390fd5b60405180608001604052808460ff1681526020018360ff1681526020014281526020018281525060076000600854815260200190815260200160002060008201518160000160006101000a81548160ff021916908360ff16021790555060208201518160000160016101000a81548160ff021916908360ff160217905550604082015181600101556060820151816002015590505060086000815480929190610eb6906128be565b9190505550505050565b610ec86110d3565b73ffffffffffffffffffffffffffffffffffffffff16610ee661093d565b73ffffffffffffffffffffffffffffffffffffffff1614610f3c576040517f08c379a0000000000000000000000000000000000000000000000000000000008152600401610f3390612594565b60405180910390fd5b600073ffffffffffffffffffffffffffffffffffffffff168173ffffffffffffffffffffffffffffffffffffffff161415610fac576040517f08c379a0000000000000000000000000000000000000000000000000000000008152600401610fa390612494565b60405180910390fd5b610fb5816114ce565b50565b600060076000600854815260200190815260200160002090504281600201548260010154610fe6919061270e565b11610ff057600080fd5b4281600101819055505050565b60007f01ffc9a7000000000000000000000000000000000000000000000000000000007bffffffffffffffffffffffffffffffffffffffffffffffffffffffff1916827bffffffffffffffffffffffffffffffffffffffffffffffffffffffff1916149050919050565b60008073ffffffffffffffffffffffffffffffffffffffff166002600084815260200190815260200160002060009054906101000a900473ffffffffffffffffffffffffffffffffffffffff1673ffffffffffffffffffffffffffffffffffffffff1614159050919050565b600033905090565b816004600083815260200190815260200160002060006101000a81548173ffffffffffffffffffffffffffffffffffffffff021916908373ffffffffffffffffffffffffffffffffffffffff160217905550808273ffffffffffffffffffffffffffffffffffffffff1661114e8361074b565b73ffffffffffffffffffffffffffffffffffffffff167f8c5be1e5ebec7d5bd14f71427d1e84f3dd0314c0f7b2291e5b200ac8c7c3b92560405160405180910390a45050565b600061119f82611067565b6111de576040517f08c379a00000000000000000000000000000000000000000000000000000000081526004016111d5906124f4565b60405180910390fd5b60006111e98361074b565b90508073ffffffffffffffffffffffffffffffffffffffff168473ffffffffffffffffffffffffffffffffffffffff16148061125857508373ffffffffffffffffffffffffffffffffffffffff166112408461052e565b73ffffffffffffffffffffffffffffffffffffffff16145b8061126957506112688185610cfe565b5b91505092915050565b8273ffffffffffffffffffffffffffffffffffffffff166112928261074b565b73ffffffffffffffffffffffffffffffffffffffff16146112e8576040517f08c379a00000000000000000000000000000000000000000000000000000000081526004016112df906125b4565b60405180910390fd5b600073ffffffffffffffffffffffffffffffffffffffff168273ffffffffffffffffffffffffffffffffffffffff161415611358576040517f08c379a000000000000000000000000000000000000000000000000000000000815260040161134f906124b4565b60405180910390fd5b6113638383836117b4565b61136e6000826110db565b6001600360008573ffffffffffffffffffffffffffffffffffffffff1673ffffffffffffffffffffffffffffffffffffffff16815260200190815260200160002060008282546113be9190612795565b925050819055506001600360008473ffffffffffffffffffffffffffffffffffffffff1673ffffffffffffffffffffffffffffffffffffffff1681526020019081526020016000206000828254611415919061270e565b92505081905550816002600083815260200190815260200160002060006101000a81548173ffffffffffffffffffffffffffffffffffffffff021916908373ffffffffffffffffffffffffffffffffffffffff160217905550808273ffffffffffffffffffffffffffffffffffffffff168473ffffffffffffffffffffffffffffffffffffffff167fddf252ad1be2c89b69c2b068fc378daa952ba7f163c4a11628f55a4df523b3ef60405160405180910390a4505050565b6000600660009054906101000a900473ffffffffffffffffffffffffffffffffffffffff16905081600660006101000a81548173ffffffffffffffffffffffffffffffffffffffff021916908373ffffffffffffffffffffffffffffffffffffffff1602179055508173ffffffffffffffffffffffffffffffffffffffff168173ffffffffffffffffffffffffffffffffffffffff167f8be0079c531659141344cd1fd0a4f28419497f9722a3daafe3b4186f6b6457e060405160405180910390a35050565b61159f848484611272565b6115ab848484846117f2565b6115ea576040517f08c379a00000000000000000000000000000000000000000000000000000000081526004016115e190612474565b60405180910390fd5b50505050565b606060405180602001604052806000815250905090565b6060600082141561164f576040518060400160405280600181526020017f300000000000000000000000000000000000000000000000000000000000000081525090506117af565b600082905060005b6000821461168157808061166a906128be565b915050600a8261167a9190612764565b9150611657565b60008167ffffffffffffffff8111156116c3577f4e487b7100000000000000000000000000000000000000000000000000000000600052604160045260246000fd5b6040519080825280601f01601f1916602001820160405280156116f55781602001600182028036833780820191505090505b5090505b600085146117a85760018261170e9190612795565b9150600a8561171d9190612907565b6030611729919061270e565b60f81b818381518110611765577f4e487b7100000000000000000000000000000000000000000000000000000000600052603260045260246000fd5b60200101907effffffffffffffffffffffffffffffffffffffffffffffffffffffffffffff1916908160001a905350600a856117a19190612764565b94506116f9565b8093505050505b919050565b6000600760006008548152602001908152602001600020905042816002015482600101546117e2919061270e565b116117ec57600080fd5b50505050565b60006118138473ffffffffffffffffffffffffffffffffffffffff16611989565b1561197c578373ffffffffffffffffffffffffffffffffffffffff1663150b7a0261183c6110d3565b8786866040518563ffffffff1660e01b815260040161185e94939291906123eb565b602060405180830381600087803b15801561187857600080fd5b505af19250505080156118a957506040513d601f19601f820116820180604052508101906118a69190611c80565b60015b61192c573d80600081146118d9576040519150601f19603f3d011682016040523d82523d6000602084013e6118de565b606091505b50600081511415611924576040517f08c379a000000000000000000000000000000000000000000000000000000000815260040161191b90612474565b60405180910390fd5b805181602001fd5b63150b7a0260e01b7bffffffffffffffffffffffffffffffffffffffffffffffffffffffff1916817bffffffffffffffffffffffffffffffffffffffffffffffffffffffff191614915050611981565b600190505b949350505050565b600080823b905060008111915050919050565b6040518060800160405280600060ff168152602001600060ff16815260200160008152602001600081525090565b60006119dd6119d88461269b565b61266a565b9050828152602081018484840111156119f557600080fd5b611a0084828561284a565b509392505050565b600081359050611a1781612a05565b92915050565b600081359050611a2c81612a1c565b92915050565b600081359050611a4181612a33565b92915050565b600081519050611a5681612a33565b92915050565b600082601f830112611a6d57600080fd5b8135611a7d8482602086016119ca565b91505092915050565b600081359050611a9581612a4a565b92915050565b600081359050611aaa81612a61565b92915050565b600060208284031215611ac257600080fd5b6000611ad084828501611a08565b91505092915050565b60008060408385031215611aec57600080fd5b6000611afa85828601611a08565b9250506020611b0b85828601611a08565b9150509250929050565b600080600060608486031215611b2a57600080fd5b6000611b3886828701611a08565b9350506020611b4986828701611a08565b9250506040611b5a86828701611a86565b9150509250925092565b60008060008060808587031215611b7a57600080fd5b6000611b8887828801611a08565b9450506020611b9987828801611a08565b9350506040611baa87828801611a86565b925050606085013567ffffffffffffffff811115611bc757600080fd5b611bd387828801611a5c565b91505092959194509250565b60008060408385031215611bf257600080fd5b6000611c0085828601611a08565b9250506020611c1185828601611a1d565b9150509250929050565b60008060408385031215611c2e57600080fd5b6000611c3c85828601611a08565b9250506020611c4d85828601611a86565b9150509250929050565b600060208284031215611c6957600080fd5b6000611c7784828501611a32565b91505092915050565b600060208284031215611c9257600080fd5b6000611ca084828501611a47565b91505092915050565b600060208284031215611cbb57600080fd5b6000611cc984828501611a86565b91505092915050565b600080600060608486031215611ce757600080fd5b6000611cf586828701611a9b565b9350506020611d0686828701611a9b565b9250506040611d1786828701611a86565b9150509250925092565b611d2a816127c9565b82525050565b611d39816127db565b82525050565b6000611d4a826126cb565b611d5481856126e1565b9350611d64818560208601612859565b611d6d816129f4565b840191505092915050565b6000611d83826126d6565b611d8d81856126f2565b9350611d9d818560208601612859565b611da6816129f4565b840191505092915050565b6000611dbc826126d6565b611dc68185612703565b9350611dd6818560208601612859565b80840191505092915050565b6000611def6032836126f2565b91507f4552433732313a207472616e7366657220746f206e6f6e20455243373231526560008301527f63656976657220696d706c656d656e74657200000000000000000000000000006020830152604082019050919050565b6000611e556026836126f2565b91507f4f776e61626c653a206e6577206f776e657220697320746865207a65726f206160008301527f64647265737300000000000000000000000000000000000000000000000000006020830152604082019050919050565b6000611ebb6024836126f2565b91507f4552433732313a207472616e7366657220746f20746865207a65726f2061646460008301527f72657373000000000000000000000000000000000000000000000000000000006020830152604082019050919050565b6000611f216019836126f2565b91507f4552433732313a20617070726f766520746f2063616c6c6572000000000000006000830152602082019050919050565b6000611f61602c836126f2565b91507f4552433732313a206f70657261746f7220717565727920666f72206e6f6e657860008301527f697374656e7420746f6b656e00000000000000000000000000000000000000006020830152604082019050919050565b6000611fc76038836126f2565b91507f4552433732313a20617070726f76652063616c6c6572206973206e6f74206f7760008301527f6e6572206e6f7220617070726f76656420666f7220616c6c00000000000000006020830152604082019050919050565b600061202d602a836126f2565b91507f4552433732313a2062616c616e636520717565727920666f7220746865207a6560008301527f726f2061646472657373000000000000000000000000000000000000000000006020830152604082019050919050565b60006120936029836126f2565b91507f4552433732313a206f776e657220717565727920666f72206e6f6e657869737460008301527f656e7420746f6b656e00000000000000000000000000000000000000000000006020830152604082019050919050565b60006120f9602c836126f2565b91507f4552433732313a20617070726f76656420717565727920666f72206e6f6e657860008301527f697374656e7420746f6b656e00000000000000000000000000000000000000006020830152604082019050919050565b600061215f6020836126f2565b91507f4f776e61626c653a2063616c6c6572206973206e6f7420746865206f776e65726000830152602082019050919050565b600061219f6029836126f2565b91507f4552433732313a207472616e73666572206f6620746f6b656e2074686174206960008301527f73206e6f74206f776e00000000000000000000000000000000000000000000006020830152604082019050919050565b6000612205602f836126f2565b91507f4552433732314d657461646174613a2055524920717565727920666f72206e6f60008301527f6e6578697374656e7420746f6b656e00000000000000000000000000000000006020830152604082019050919050565b600061226b6021836126f2565b91507f4552433732313a20617070726f76616c20746f2063757272656e74206f776e6560008301527f72000000000000000000000000000000000000000000000000000000000000006020830152604082019050919050565b60006122d16031836126f2565b91507f4552433732313a207472616e736665722063616c6c6572206973206e6f74206f60008301527f776e6572206e6f7220617070726f7665640000000000000000000000000000006020830152604082019050919050565b608082016000820151612340600085018261239d565b506020820151612353602085018261239d565b506040820151612366604085018261237f565b506060820151612379606085018261237f565b50505050565b61238881612833565b82525050565b61239781612833565b82525050565b6123a68161283d565b82525050565b60006123b88285611db1565b91506123c48284611db1565b91508190509392505050565b60006020820190506123e56000830184611d21565b92915050565b60006080820190506124006000830187611d21565b61240d6020830186611d21565b61241a604083018561238e565b818103606083015261242c8184611d3f565b905095945050505050565b600060208201905061244c6000830184611d30565b92915050565b6000602082019050818103600083015261246c8184611d78565b905092915050565b6000602082019050818103600083015261248d81611de2565b9050919050565b600060208201905081810360008301526124ad81611e48565b9050919050565b600060208201905081810360008301526124cd81611eae565b9050919050565b600060208201905081810360008301526124ed81611f14565b9050919050565b6000602082019050818103600083015261250d81611f54565b9050919050565b6000602082019050818103600083015261252d81611fba565b9050919050565b6000602082019050818103600083015261254d81612020565b9050919050565b6000602082019050818103600083015261256d81612086565b9050919050565b6000602082019050818103600083015261258d816120ec565b9050919050565b600060208201905081810360008301526125ad81612152565b9050919050565b600060208201905081810360008301526125cd81612192565b9050919050565b600060208201905081810360008301526125ed816121f8565b9050919050565b6000602082019050818103600083015261260d8161225e565b9050919050565b6000602082019050818103600083015261262d816122c4565b9050919050565b6000608082019050612649600083018461232a565b92915050565b6000602082019050612664600083018461238e565b92915050565b6000604051905081810181811067ffffffffffffffff82111715612691576126906129c5565b5b8060405250919050565b600067ffffffffffffffff8211156126b6576126b56129c5565b5b601f19601f8301169050602081019050919050565b600081519050919050565b600081519050919050565b600082825260208201905092915050565b600082825260208201905092915050565b600081905092915050565b600061271982612833565b915061272483612833565b9250827fffffffffffffffffffffffffffffffffffffffffffffffffffffffffffffffff0382111561275957612758612938565b5b828201905092915050565b600061276f82612833565b915061277a83612833565b92508261278a57612789612967565b5b828204905092915050565b60006127a082612833565b91506127ab83612833565b9250828210156127be576127bd612938565b5b828203905092915050565b60006127d482612813565b9050919050565b60008115159050919050565b60007fffffffff0000000000000000000000000000000000000000000000000000000082169050919050565b600073ffffffffffffffffffffffffffffffffffffffff82169050919050565b6000819050919050565b600060ff82169050919050565b82818337600083830152505050565b60005b8381101561287757808201518184015260208101905061285c565b83811115612886576000848401525b50505050565b600060028204905060018216806128a457607f821691505b602082108114156128b8576128b7612996565b5b50919050565b60006128c982612833565b91507fffffffffffffffffffffffffffffffffffffffffffffffffffffffffffffffff8214156128fc576128fb612938565b5b600182019050919050565b600061291282612833565b915061291d83612833565b92508261292d5761292c612967565b5b828206905092915050565b7f4e487b7100000000000000000000000000000000000000000000000000000000600052601160045260246000fd5b7f4e487b7100000000000000000000000000000000000000000000000000000000600052601260045260246000fd5b7f4e487b7100000000000000000000000000000000000000000000000000000000600052602260045260246000fd5b7f4e487b7100000000000000000000000000000000000000000000000000000000600052604160045260246000fd5b6000601f19601f8301169050919050565b612a0e816127c9565b8114612a1957600080fd5b50565b612a25816127db565b8114612a3057600080fd5b50565b612a3c816127e7565b8114612a4757600080fd5b50565b612a5381612833565b8114612a5e57600080fd5b50565b612a6a8161283d565b8114612a7557600080fd5b5056fea2646970667358221220b4646232f6762b43d9a4ed3f03db5bb13a9ccf4d5e76bab593e08467de73f93164736f6c63430008000033",
  "immutableReferences": {},
  "source": "pragma solidity 0.8.0;\r\n\r\nimport \"../node_modules/@openzeppelin/contracts/token/ERC721/ERC721.sol\";\r\nimport \"../node_modules/@openzeppelin/contracts/access/Ownable.sol\";\r\n\r\n\r\ncontract Token is ERC721, Ownable {\r\n\r\n    struct Pet {\r\n        uint8 damage;\r\n        uint8 magic;\r\n        uint256 lastMeal;\r\n        uint256 endurance;\r\n    }\r\n    \r\n    mapping (uint256 => Pet) private _tokenDetails;\r\n\r\n    uint256 nextId = 0;\r\n\r\n\r\n    constructor (string memory name, string memory symbol) ERC721(name, symbol) {\r\n\r\n    }\r\n\r\n    function getTokenDetails(uint256 tokenId) public view returns (Pet memory) {\r\n        return _tokenDetails[tokenId];\r\n    }\r\n\r\n    function mint(uint8 damage, uint8 magic, uint256 endurance) public onlyOwner {\r\n        // _safeMint(msg.sender, nextId);\r\n            \r\n        _tokenDetails[nextId] = Pet(damage, magic, block.timestamp, endurance);\r\n        nextId++;\r\n\r\n    }\r\n\r\n    function feed(uint256 tokenId) public {\r\n        Pet storage pet = _tokenDetails[nextId];\r\n        require(pet.lastMeal + pet.endurance > block.timestamp);\r\n        pet.lastMeal = block.timestamp;\r\n    }\r\n\r\n    function _beforeTokenTransfer(address from, address to, uint256 tokenId) internal override {\r\n        Pet storage pet = _tokenDetails[nextId];\r\n        require(pet.lastMeal + pet.endurance > block.timestamp);\r\n\r\n    }\r\n    \r\n\r\n\r\n}\r\n",
  "sourcePath": "C:\\ws\\nft\\contracts\\Token.sol",
  "compiler": {
    "name": "solc",
    "version": "0.8.0+commit.c7dfd78e.Emscripten.clang"
  },
  "schemaVersion": "3.4.3",
  "updatedAt": "2021-08-21T22:12:36.738Z",
  "networkType": "ethereum",
  "devdoc": {
    "kind": "dev",
    "methods": {
      "approve(address,uint256)": {
        "details": "See {IERC721-approve}."
      },
      "balanceOf(address)": {
        "details": "See {IERC721-balanceOf}."
      },
      "getApproved(uint256)": {
        "details": "See {IERC721-getApproved}."
      },
      "isApprovedForAll(address,address)": {
        "details": "See {IERC721-isApprovedForAll}."
      },
      "name()": {
        "details": "See {IERC721Metadata-name}."
      },
      "owner()": {
        "details": "Returns the address of the current owner."
      },
      "ownerOf(uint256)": {
        "details": "See {IERC721-ownerOf}."
      },
      "renounceOwnership()": {
        "details": "Leaves the contract without owner. It will not be possible to call `onlyOwner` functions anymore. Can only be called by the current owner. NOTE: Renouncing ownership will leave the contract without an owner, thereby removing any functionality that is only available to the owner."
      },
      "safeTransferFrom(address,address,uint256)": {
        "details": "See {IERC721-safeTransferFrom}."
      },
      "safeTransferFrom(address,address,uint256,bytes)": {
        "details": "See {IERC721-safeTransferFrom}."
      },
      "setApprovalForAll(address,bool)": {
        "details": "See {IERC721-setApprovalForAll}."
      },
      "supportsInterface(bytes4)": {
        "details": "See {IERC165-supportsInterface}."
      },
      "symbol()": {
        "details": "See {IERC721Metadata-symbol}."
      },
      "tokenURI(uint256)": {
        "details": "See {IERC721Metadata-tokenURI}."
      },
      "transferFrom(address,address,uint256)": {
        "details": "See {IERC721-transferFrom}."
      },
      "transferOwnership(address)": {
        "details": "Transfers ownership of the contract to a new account (`newOwner`). Can only be called by the current owner."
      }
    },
    "version": 1
  },
  "userdoc": {
    "kind": "user",
    "methods": {},
    "version": 1
  }
}