{
  "contractName": "Token",
  "abi": [
    {
      "inputs": [
        {
          "internalType": "string",
          "name": "name",
          "type": "string"
        },
        {
          "internalType": "string",
          "name": "symbol",
          "type": "string"
        }
      ],
      "stateMutability": "nonpayable",
      "type": "constructor"
    },
    {
      "anonymous": false,
      "inputs": [
        {
          "indexed": true,
          "internalType": "address",
          "name": "owner",
          "type": "address"
        },
        {
          "indexed": true,
          "internalType": "address",
          "name": "approved",
          "type": "address"
        },
        {
          "indexed": true,
          "internalType": "uint256",
          "name": "tokenId",
          "type": "uint256"
        }
      ],
      "name": "Approval",
      "type": "event"
    },
    {
      "anonymous": false,
      "inputs": [
        {
          "indexed": true,
          "internalType": "address",
          "name": "owner",
          "type": "address"
        },
        {
          "indexed": true,
          "internalType": "address",
          "name": "operator",
          "type": "address"
        },
        {
          "indexed": false,
          "internalType": "bool",
          "name": "approved",
          "type": "bool"
        }
      ],
      "name": "ApprovalForAll",
      "type": "event"
    },
    {
      "anonymous": false,
      "inputs": [
        {
          "indexed": true,
          "internalType": "address",
          "name": "previousOwner",
          "type": "address"
        },
        {
          "indexed": true,
          "internalType": "address",
          "name": "newOwner",
          "type": "address"
        }
      ],
      "name": "OwnershipTransferred",
      "type": "event"
    },
    {
      "anonymous": false,
      "inputs": [
        {
          "indexed": true,
          "internalType": "address",
          "name": "from",
          "type": "address"
        },
        {
          "indexed": true,
          "internalType": "address",
          "name": "to",
          "type": "address"
        },
        {
          "indexed": true,
          "internalType": "uint256",
          "name": "tokenId",
          "type": "uint256"
        }
      ],
      "name": "Transfer",
      "type": "event"
    },
    {
      "inputs": [
        {
          "internalType": "address",
          "name": "to",
          "type": "address"
        },
        {
          "internalType": "uint256",
          "name": "tokenId",
          "type": "uint256"
        }
      ],
      "name": "approve",
      "outputs": [],
      "stateMutability": "nonpayable",
      "type": "function"
    },
    {
      "inputs": [
        {
          "internalType": "address",
          "name": "owner",
          "type": "address"
        }
      ],
      "name": "balanceOf",
      "outputs": [
        {
          "internalType": "uint256",
          "name": "",
          "type": "uint256"
        }
      ],
      "stateMutability": "view",
      "type": "function",
      "constant": true
    },
    {
      "inputs": [
        {
          "internalType": "uint256",
          "name": "tokenId",
          "type": "uint256"
        }
      ],
      "name": "getApproved",
      "outputs": [
        {
          "internalType": "address",
          "name": "",
          "type": "address"
        }
      ],
      "stateMutability": "view",
      "type": "function",
      "constant": true
    },
    {
      "inputs": [
        {
          "internalType": "address",
          "name": "owner",
          "type": "address"
        },
        {
          "internalType": "address",
          "name": "operator",
          "type": "address"
        }
      ],
      "name": "isApprovedForAll",
      "outputs": [
        {
          "internalType": "bool",
          "name": "",
          "type": "bool"
        }
      ],
      "stateMutability": "view",
      "type": "function",
      "constant": true
    },
    {
      "inputs": [],
      "name": "name",
      "outputs": [
        {
          "internalType": "string",
          "name": "",
          "type": "string"
        }
      ],
      "stateMutability": "view",
      "type": "function",
      "constant": true
    },
    {
      "inputs": [],
      "name": "owner",
      "outputs": [
        {
          "internalType": "address",
          "name": "",
          "type": "address"
        }
      ],
      "stateMutability": "view",
      "type": "function",
      "constant": true
    },
    {
      "inputs": [
        {
          "internalType": "uint256",
          "name": "tokenId",
          "type": "uint256"
        }
      ],
      "name": "ownerOf",
      "outputs": [
        {
          "internalType": "address",
          "name": "",
          "type": "address"
        }
      ],
      "stateMutability": "view",
      "type": "function",
      "constant": true
    },
    {
      "inputs": [],
      "name": "renounceOwnership",
      "outputs": [],
      "stateMutability": "nonpayable",
      "type": "function"
    },
    {
      "inputs": [
        {
          "internalType": "address",
          "name": "from",
          "type": "address"
        },
        {
          "internalType": "address",
          "name": "to",
          "type": "address"
        },
        {
          "internalType": "uint256",
          "name": "tokenId",
          "type": "uint256"
        }
      ],
      "name": "safeTransferFrom",
      "outputs": [],
      "stateMutability": "nonpayable",
      "type": "function"
    },
    {
      "inputs": [
        {
          "internalType": "address",
          "name": "from",
          "type": "address"
        },
        {
          "internalType": "address",
          "name": "to",
          "type": "address"
        },
        {
          "internalType": "uint256",
          "name": "tokenId",
          "type": "uint256"
        },
        {
          "internalType": "bytes",
          "name": "_data",
          "type": "bytes"
        }
      ],
      "name": "safeTransferFrom",
      "outputs": [],
      "stateMutability": "nonpayable",
      "type": "function"
    },
    {
      "inputs": [
        {
          "internalType": "address",
          "name": "operator",
          "type": "address"
        },
        {
          "internalType": "bool",
          "name": "approved",
          "type": "bool"
        }
      ],
      "name": "setApprovalForAll",
      "outputs": [],
      "stateMutability": "nonpayable",
      "type": "function"
    },
    {
      "inputs": [
        {
          "internalType": "bytes4",
          "name": "interfaceId",
          "type": "bytes4"
        }
      ],
      "name": "supportsInterface",
      "outputs": [
        {
          "internalType": "bool",
          "name": "",
          "type": "bool"
        }
      ],
      "stateMutability": "view",
      "type": "function",
      "constant": true
    },
    {
      "inputs": [],
      "name": "symbol",
      "outputs": [
        {
          "internalType": "string",
          "name": "",
          "type": "string"
        }
      ],
      "stateMutability": "view",
      "type": "function",
      "constant": true
    },
    {
      "inputs": [
        {
          "internalType": "uint256",
          "name": "tokenId",
          "type": "uint256"
        }
      ],
      "name": "tokenURI",
      "outputs": [
        {
          "internalType": "string",
          "name": "",
          "type": "string"
        }
      ],
      "stateMutability": "view",
      "type": "function",
      "constant": true
    },
    {
      "inputs": [
        {
          "internalType": "address",
          "name": "from",
          "type": "address"
        },
        {
          "internalType": "address",
          "name": "to",
          "type": "address"
        },
        {
          "internalType": "uint256",
          "name": "tokenId",
          "type": "uint256"
        }
      ],
      "name": "transferFrom",
      "outputs": [],
      "stateMutability": "nonpayable",
      "type": "function"
    },
    {
      "inputs": [
        {
          "internalType": "address",
          "name": "newOwner",
          "type": "address"
        }
      ],
      "name": "transferOwnership",
      "outputs": [],
      "stateMutability": "nonpayable",
      "type": "function"
    },
    {
      "inputs": [
        {
          "internalType": "uint256",
          "name": "tokenId",
          "type": "uint256"
        }
      ],
      "name": "getTokenDetails",
      "outputs": [
        {
          "components": [
            {
              "internalType": "uint8",
              "name": "damage",
              "type": "uint8"
            },
            {
              "internalType": "uint8",
              "name": "magic",
              "type": "uint8"
            },
            {
              "internalType": "uint256",
              "name": "lastMeal",
              "type": "uint256"
            },
            {
              "internalType": "uint256",
              "name": "endurance",
              "type": "uint256"
            },
            {
              "internalType": "address",
              "name": "test",
              "type": "address"
            }
          ],
          "internalType": "struct Token.Pet",
          "name": "",
          "type": "tuple"
        }
      ],
      "stateMutability": "view",
      "type": "function",
      "constant": true
    },
    {
      "inputs": [
        {
          "internalType": "uint8",
          "name": "damage",
          "type": "uint8"
        },
        {
          "internalType": "uint8",
          "name": "magic",
          "type": "uint8"
        },
        {
          "internalType": "uint256",
          "name": "endurance",
          "type": "uint256"
        }
      ],
      "name": "mint",
      "outputs": [],
      "stateMutability": "nonpayable",
      "type": "function"
    },
    {
      "inputs": [
        {
          "internalType": "uint256",
          "name": "tokenId",
          "type": "uint256"
        }
      ],
      "name": "feed",
      "outputs": [],
      "stateMutability": "nonpayable",
      "type": "function"
    },
    {
      "inputs": [
        {
          "internalType": "address",
          "name": "user",
          "type": "address"
        }
      ],
      "name": "getAllTokensForUser",
      "outputs": [
        {
          "internalType": "uint256[]",
          "name": "",
          "type": "uint256[]"
        }
      ],
      "stateMutability": "view",
      "type": "function",
      "constant": true
    }
  ],
  "bytecode": "0x608060405260006008553480156200001657600080fd5b50604051620032ae380380620032ae83398181016040528101906200003c91906200028a565b818181600090805190602001906200005692919062000168565b5080600190805190602001906200006f92919062000168565b50505062000092620000866200009a60201b60201c565b620000a260201b60201c565b50506200042e565b600033905090565b6000600660009054906101000a900473ffffffffffffffffffffffffffffffffffffffff16905081600660006101000a81548173ffffffffffffffffffffffffffffffffffffffff021916908373ffffffffffffffffffffffffffffffffffffffff1602179055508173ffffffffffffffffffffffffffffffffffffffff168173ffffffffffffffffffffffffffffffffffffffff167f8be0079c531659141344cd1fd0a4f28419497f9722a3daafe3b4186f6b6457e060405160405180910390a35050565b82805462000176906200039a565b90600052602060002090601f0160209004810192826200019a5760008555620001e6565b82601f10620001b557805160ff1916838001178555620001e6565b82800160010185558215620001e6579182015b82811115620001e5578251825591602001919060010190620001c8565b5b509050620001f59190620001f9565b5090565b5b8082111562000214576000816000905550600101620001fa565b5090565b60006200022f620002298462000331565b620002fd565b9050828152602081018484840111156200024857600080fd5b6200025584828562000364565b509392505050565b600082601f8301126200026f57600080fd5b81516200028184826020860162000218565b91505092915050565b600080604083850312156200029e57600080fd5b600083015167ffffffffffffffff811115620002b957600080fd5b620002c7858286016200025d565b925050602083015167ffffffffffffffff811115620002e557600080fd5b620002f3858286016200025d565b9150509250929050565b6000604051905081810181811067ffffffffffffffff82111715620003275762000326620003ff565b5b8060405250919050565b600067ffffffffffffffff8211156200034f576200034e620003ff565b5b601f19601f8301169050602081019050919050565b60005b838110156200038457808201518184015260208101905062000367565b8381111562000394576000848401525b50505050565b60006002820490506001821680620003b357607f821691505b60208210811415620003ca57620003c9620003d0565b5b50919050565b7f4e487b7100000000000000000000000000000000000000000000000000000000600052602260045260246000fd5b7f4e487b7100000000000000000000000000000000000000000000000000000000600052604160045260246000fd5b612e70806200043e6000396000f3fe608060405234801561001057600080fd5b506004361061012c5760003560e01c80638da5cb5b116100ad578063c87b56dd11610071578063c87b56dd14610341578063e985e9c514610371578063eb22ed32146103a1578063f2fde38b146103bd578063f59dfdfb146103d95761012c565b80638da5cb5b1461029d57806395d89b41146102bb578063a22cb465146102d9578063b88d4fde146102f5578063c1e03728146103115761012c565b806342842e0e116100f457806342842e0e146101e75780636352211e1461020357806370a0823114610233578063715018a61461026357806382de8fe91461026d5761012c565b806301ffc9a71461013157806306fdde0314610161578063081812fc1461017f578063095ea7b3146101af57806323b872dd146101cb575b600080fd5b61014b60048036038101906101469190611f26565b6103f5565b60405161015891906127c0565b60405180910390f35b6101696104d7565b60405161017691906127db565b60405180910390f35b61019960048036038101906101949190611f78565b610569565b6040516101a69190612737565b60405180910390f35b6101c960048036038101906101c49190611eea565b6105ee565b005b6101e560048036038101906101e09190611de4565b610706565b005b61020160048036038101906101fc9190611de4565b610766565b005b61021d60048036038101906102189190611f78565b610786565b60405161022a9190612737565b60405180910390f35b61024d60048036038101906102489190611d7f565b610838565b60405161025a91906129d8565b60405180910390f35b61026b6108f0565b005b61028760048036038101906102829190611d7f565b610978565b604051610294919061279e565b60405180910390f35b6102a5610b57565b6040516102b29190612737565b60405180910390f35b6102c3610b81565b6040516102d091906127db565b60405180910390f35b6102f360048036038101906102ee9190611eae565b610c13565b005b61030f600480360381019061030a9190611e33565b610d94565b005b61032b60048036038101906103269190611f78565b610df6565b60405161033891906129bd565b60405180910390f35b61035b60048036038101906103569190611f78565b610ec7565b60405161036891906127db565b60405180910390f35b61038b60048036038101906103869190611da8565b610f6e565b60405161039891906127c0565b60405180910390f35b6103bb60048036038101906103b69190611fa1565b611002565b005b6103d760048036038101906103d29190611d7f565b611193565b005b6103f360048036038101906103ee9190611f78565b61128b565b005b60007f80ac58cd000000000000000000000000000000000000000000000000000000007bffffffffffffffffffffffffffffffffffffffffffffffffffffffff1916827bffffffffffffffffffffffffffffffffffffffffffffffffffffffff191614806104c057507f5b5e139f000000000000000000000000000000000000000000000000000000007bffffffffffffffffffffffffffffffffffffffffffffffffffffffff1916827bffffffffffffffffffffffffffffffffffffffffffffffffffffffff1916145b806104d057506104cf826112af565b5b9050919050565b6060600080546104e690612c4e565b80601f016020809104026020016040519081016040528092919081815260200182805461051290612c4e565b801561055f5780601f106105345761010080835404028352916020019161055f565b820191906000526020600020905b81548152906001019060200180831161054257829003601f168201915b5050505050905090565b600061057482611319565b6105b3576040517f08c379a00000000000000000000000000000000000000000000000000000000081526004016105aa906128fd565b60405180910390fd5b6004600083815260200190815260200160002060009054906101000a900473ffffffffffffffffffffffffffffffffffffffff169050919050565b60006105f982610786565b90508073ffffffffffffffffffffffffffffffffffffffff168373ffffffffffffffffffffffffffffffffffffffff16141561066a576040517f08c379a00000000000000000000000000000000000000000000000000000000081526004016106619061297d565b60405180910390fd5b8073ffffffffffffffffffffffffffffffffffffffff16610689611385565b73ffffffffffffffffffffffffffffffffffffffff1614806106b857506106b7816106b2611385565b610f6e565b5b6106f7576040517f08c379a00000000000000000000000000000000000000000000000000000000081526004016106ee9061289d565b60405180910390fd5b610701838361138d565b505050565b610717610711611385565b82611446565b610756576040517f08c379a000000000000000000000000000000000000000000000000000000000815260040161074d9061299d565b60405180910390fd5b610761838383611524565b505050565b61078183838360405180602001604052806000815250610d94565b505050565b6000806002600084815260200190815260200160002060009054906101000a900473ffffffffffffffffffffffffffffffffffffffff169050600073ffffffffffffffffffffffffffffffffffffffff168173ffffffffffffffffffffffffffffffffffffffff16141561082f576040517f08c379a0000000000000000000000000000000000000000000000000000000008152600401610826906128dd565b60405180910390fd5b80915050919050565b60008073ffffffffffffffffffffffffffffffffffffffff168273ffffffffffffffffffffffffffffffffffffffff1614156108a9576040517f08c379a00000000000000000000000000000000000000000000000000000000081526004016108a0906128bd565b60405180910390fd5b600360008373ffffffffffffffffffffffffffffffffffffffff1673ffffffffffffffffffffffffffffffffffffffff168152602001908152602001600020549050919050565b6108f8611385565b73ffffffffffffffffffffffffffffffffffffffff16610916610b57565b73ffffffffffffffffffffffffffffffffffffffff161461096c576040517f08c379a00000000000000000000000000000000000000000000000000000000081526004016109639061291d565b60405180910390fd5b6109766000611780565b565b6060600061098583610838565b905060085490506000811415610a5c576000600167ffffffffffffffff8111156109d8577f4e487b7100000000000000000000000000000000000000000000000000000000600052604160045260246000fd5b604051908082528060200260200182016040528015610a065781602001602082028036833780820191505090505b5090506104d281600081518110610a46577f4e487b7100000000000000000000000000000000000000000000000000000000600052603260045260246000fd5b6020026020010181815250508092505050610b52565b60008167ffffffffffffffff811115610a9e577f4e487b7100000000000000000000000000000000000000000000000000000000600052604160045260246000fd5b604051908082528060200260200182016040528015610acc5781602001602082028036833780820191505090505b509050600060085490506000805b82811015610b495780848381518110610b1c577f4e487b7100000000000000000000000000000000000000000000000000000000600052603260045260246000fd5b6020026020010181815250508180610b3390612c80565b9250508080610b4190612c80565b915050610ada565b83955050505050505b919050565b6000600660009054906101000a900473ffffffffffffffffffffffffffffffffffffffff16905090565b606060018054610b9090612c4e565b80601f0160208091040260200160405190810160405280929190818152602001828054610bbc90612c4e565b8015610c095780601f10610bde57610100808354040283529160200191610c09565b820191906000526020600020905b815481529060010190602001808311610bec57829003601f168201915b5050505050905090565b610c1b611385565b73ffffffffffffffffffffffffffffffffffffffff168273ffffffffffffffffffffffffffffffffffffffff161415610c89576040517f08c379a0000000000000000000000000000000000000000000000000000000008152600401610c809061285d565b60405180910390fd5b8060056000610c96611385565b73ffffffffffffffffffffffffffffffffffffffff1673ffffffffffffffffffffffffffffffffffffffff16815260200190815260200160002060008473ffffffffffffffffffffffffffffffffffffffff1673ffffffffffffffffffffffffffffffffffffffff16815260200190815260200160002060006101000a81548160ff0219169083151502179055508173ffffffffffffffffffffffffffffffffffffffff16610d43611385565b73ffffffffffffffffffffffffffffffffffffffff167f17307eab39ab6107e8899845ad3d59bd9653f200f220920489ca2b5937696c3183604051610d8891906127c0565b60405180910390a35050565b610da5610d9f611385565b83611446565b610de4576040517f08c379a0000000000000000000000000000000000000000000000000000000008152600401610ddb9061299d565b60405180910390fd5b610df084848484611846565b50505050565b610dfe611c4e565b600760008381526020019081526020016000206040518060a00160405290816000820160009054906101000a900460ff1660ff1660ff1681526020016000820160019054906101000a900460ff1660ff1660ff16815260200160018201548152602001600282015481526020016003820160009054906101000a900473ffffffffffffffffffffffffffffffffffffffff1673ffffffffffffffffffffffffffffffffffffffff1673ffffffffffffffffffffffffffffffffffffffff16815250509050919050565b6060610ed282611319565b610f11576040517f08c379a0000000000000000000000000000000000000000000000000000000008152600401610f089061295d565b60405180910390fd5b6000610f1b6118a2565b90506000815111610f3b5760405180602001604052806000815250610f66565b80610f45846118b9565b604051602001610f56929190612713565b6040516020818303038152906040525b915050919050565b6000600560008473ffffffffffffffffffffffffffffffffffffffff1673ffffffffffffffffffffffffffffffffffffffff16815260200190815260200160002060008373ffffffffffffffffffffffffffffffffffffffff1673ffffffffffffffffffffffffffffffffffffffff16815260200190815260200160002060009054906101000a900460ff16905092915050565b61100a611385565b73ffffffffffffffffffffffffffffffffffffffff16611028610b57565b73ffffffffffffffffffffffffffffffffffffffff161461107e576040517f08c379a00000000000000000000000000000000000000000000000000000000081526004016110759061291d565b60405180910390fd5b6040518060a001604052808460ff1681526020018360ff1681526020014281526020018281526020013373ffffffffffffffffffffffffffffffffffffffff1681525060076000600854815260200190815260200160002060008201518160000160006101000a81548160ff021916908360ff16021790555060208201518160000160016101000a81548160ff021916908360ff160217905550604082015181600101556060820151816002015560808201518160030160006101000a81548173ffffffffffffffffffffffffffffffffffffffff021916908373ffffffffffffffffffffffffffffffffffffffff1602179055509050506008600081548092919061118990612c80565b9190505550505050565b61119b611385565b73ffffffffffffffffffffffffffffffffffffffff166111b9610b57565b73ffffffffffffffffffffffffffffffffffffffff161461120f576040517f08c379a00000000000000000000000000000000000000000000000000000000081526004016112069061291d565b60405180910390fd5b600073ffffffffffffffffffffffffffffffffffffffff168173ffffffffffffffffffffffffffffffffffffffff16141561127f576040517f08c379a00000000000000000000000000000000000000000000000000000000081526004016112769061281d565b60405180910390fd5b61128881611780565b50565b60006007600083815260200190815260200160002090504281600101819055505050565b60007f01ffc9a7000000000000000000000000000000000000000000000000000000007bffffffffffffffffffffffffffffffffffffffffffffffffffffffff1916827bffffffffffffffffffffffffffffffffffffffffffffffffffffffff1916149050919050565b60008073ffffffffffffffffffffffffffffffffffffffff166002600084815260200190815260200160002060009054906101000a900473ffffffffffffffffffffffffffffffffffffffff1673ffffffffffffffffffffffffffffffffffffffff1614159050919050565b600033905090565b816004600083815260200190815260200160002060006101000a81548173ffffffffffffffffffffffffffffffffffffffff021916908373ffffffffffffffffffffffffffffffffffffffff160217905550808273ffffffffffffffffffffffffffffffffffffffff1661140083610786565b73ffffffffffffffffffffffffffffffffffffffff167f8c5be1e5ebec7d5bd14f71427d1e84f3dd0314c0f7b2291e5b200ac8c7c3b92560405160405180910390a45050565b600061145182611319565b611490576040517f08c379a00000000000000000000000000000000000000000000000000000000081526004016114879061287d565b60405180910390fd5b600061149b83610786565b90508073ffffffffffffffffffffffffffffffffffffffff168473ffffffffffffffffffffffffffffffffffffffff16148061150a57508373ffffffffffffffffffffffffffffffffffffffff166114f284610569565b73ffffffffffffffffffffffffffffffffffffffff16145b8061151b575061151a8185610f6e565b5b91505092915050565b8273ffffffffffffffffffffffffffffffffffffffff1661154482610786565b73ffffffffffffffffffffffffffffffffffffffff161461159a576040517f08c379a00000000000000000000000000000000000000000000000000000000081526004016115919061293d565b60405180910390fd5b600073ffffffffffffffffffffffffffffffffffffffff168273ffffffffffffffffffffffffffffffffffffffff16141561160a576040517f08c379a00000000000000000000000000000000000000000000000000000000081526004016116019061283d565b60405180910390fd5b611615838383611a66565b61162060008261138d565b6001600360008573ffffffffffffffffffffffffffffffffffffffff1673ffffffffffffffffffffffffffffffffffffffff16815260200190815260200160002060008282546116709190612b57565b925050819055506001600360008473ffffffffffffffffffffffffffffffffffffffff1673ffffffffffffffffffffffffffffffffffffffff16815260200190815260200160002060008282546116c79190612ad0565b92505081905550816002600083815260200190815260200160002060006101000a81548173ffffffffffffffffffffffffffffffffffffffff021916908373ffffffffffffffffffffffffffffffffffffffff160217905550808273ffffffffffffffffffffffffffffffffffffffff168473ffffffffffffffffffffffffffffffffffffffff167fddf252ad1be2c89b69c2b068fc378daa952ba7f163c4a11628f55a4df523b3ef60405160405180910390a4505050565b6000600660009054906101000a900473ffffffffffffffffffffffffffffffffffffffff16905081600660006101000a81548173ffffffffffffffffffffffffffffffffffffffff021916908373ffffffffffffffffffffffffffffffffffffffff1602179055508173ffffffffffffffffffffffffffffffffffffffff168173ffffffffffffffffffffffffffffffffffffffff167f8be0079c531659141344cd1fd0a4f28419497f9722a3daafe3b4186f6b6457e060405160405180910390a35050565b611851848484611524565b61185d84848484611aa4565b61189c576040517f08c379a0000000000000000000000000000000000000000000000000000000008152600401611893906127fd565b60405180910390fd5b50505050565b606060405180602001604052806000815250905090565b60606000821415611901576040518060400160405280600181526020017f30000000000000000000000000000000000000000000000000000000000000008152509050611a61565b600082905060005b6000821461193357808061191c90612c80565b915050600a8261192c9190612b26565b9150611909565b60008167ffffffffffffffff811115611975577f4e487b7100000000000000000000000000000000000000000000000000000000600052604160045260246000fd5b6040519080825280601f01601f1916602001820160405280156119a75781602001600182028036833780820191505090505b5090505b60008514611a5a576001826119c09190612b57565b9150600a856119cf9190612cc9565b60306119db9190612ad0565b60f81b818381518110611a17577f4e487b7100000000000000000000000000000000000000000000000000000000600052603260045260246000fd5b60200101907effffffffffffffffffffffffffffffffffffffffffffffffffffffffffffff1916908160001a905350600a85611a539190612b26565b94506119ab565b8093505050505b919050565b600060076000600854815260200190815260200160002090504281600201548260010154611a949190612ad0565b11611a9e57600080fd5b50505050565b6000611ac58473ffffffffffffffffffffffffffffffffffffffff16611c3b565b15611c2e578373ffffffffffffffffffffffffffffffffffffffff1663150b7a02611aee611385565b8786866040518563ffffffff1660e01b8152600401611b109493929190612752565b602060405180830381600087803b158015611b2a57600080fd5b505af1925050508015611b5b57506040513d601f19601f82011682018060405250810190611b589190611f4f565b60015b611bde573d8060008114611b8b576040519150601f19603f3d011682016040523d82523d6000602084013e611b90565b606091505b50600081511415611bd6576040517f08c379a0000000000000000000000000000000000000000000000000000000008152600401611bcd906127fd565b60405180910390fd5b805181602001fd5b63150b7a0260e01b7bffffffffffffffffffffffffffffffffffffffffffffffffffffffff1916817bffffffffffffffffffffffffffffffffffffffffffffffffffffffff191614915050611c33565b600190505b949350505050565b600080823b905060008111915050919050565b6040518060a00160405280600060ff168152602001600060ff1681526020016000815260200160008152602001600073ffffffffffffffffffffffffffffffffffffffff1681525090565b6000611cac611ca784612a24565b6129f3565b905082815260208101848484011115611cc457600080fd5b611ccf848285612c0c565b509392505050565b600081359050611ce681612dc7565b92915050565b600081359050611cfb81612dde565b92915050565b600081359050611d1081612df5565b92915050565b600081519050611d2581612df5565b92915050565b600082601f830112611d3c57600080fd5b8135611d4c848260208601611c99565b91505092915050565b600081359050611d6481612e0c565b92915050565b600081359050611d7981612e23565b92915050565b600060208284031215611d9157600080fd5b6000611d9f84828501611cd7565b91505092915050565b60008060408385031215611dbb57600080fd5b6000611dc985828601611cd7565b9250506020611dda85828601611cd7565b9150509250929050565b600080600060608486031215611df957600080fd5b6000611e0786828701611cd7565b9350506020611e1886828701611cd7565b9250506040611e2986828701611d55565b9150509250925092565b60008060008060808587031215611e4957600080fd5b6000611e5787828801611cd7565b9450506020611e6887828801611cd7565b9350506040611e7987828801611d55565b925050606085013567ffffffffffffffff811115611e9657600080fd5b611ea287828801611d2b565b91505092959194509250565b60008060408385031215611ec157600080fd5b6000611ecf85828601611cd7565b9250506020611ee085828601611cec565b9150509250929050565b60008060408385031215611efd57600080fd5b6000611f0b85828601611cd7565b9250506020611f1c85828601611d55565b9150509250929050565b600060208284031215611f3857600080fd5b6000611f4684828501611d01565b91505092915050565b600060208284031215611f6157600080fd5b6000611f6f84828501611d16565b91505092915050565b600060208284031215611f8a57600080fd5b6000611f9884828501611d55565b91505092915050565b600080600060608486031215611fb657600080fd5b6000611fc486828701611d6a565b9350506020611fd586828701611d6a565b9250506040611fe686828701611d55565b9150509250925092565b6000611ffc83836126e6565b60208301905092915050565b61201181612b8b565b82525050565b61202081612b8b565b82525050565b600061203182612a64565b61203b8185612a92565b935061204683612a54565b8060005b8381101561207757815161205e8882611ff0565b975061206983612a85565b92505060018101905061204a565b5085935050505092915050565b61208d81612b9d565b82525050565b600061209e82612a6f565b6120a88185612aa3565b93506120b8818560208601612c1b565b6120c181612db6565b840191505092915050565b60006120d782612a7a565b6120e18185612ab4565b93506120f1818560208601612c1b565b6120fa81612db6565b840191505092915050565b600061211082612a7a565b61211a8185612ac5565b935061212a818560208601612c1b565b80840191505092915050565b6000612143603283612ab4565b91507f4552433732313a207472616e7366657220746f206e6f6e20455243373231526560008301527f63656976657220696d706c656d656e74657200000000000000000000000000006020830152604082019050919050565b60006121a9602683612ab4565b91507f4f776e61626c653a206e6577206f776e657220697320746865207a65726f206160008301527f64647265737300000000000000000000000000000000000000000000000000006020830152604082019050919050565b600061220f602483612ab4565b91507f4552433732313a207472616e7366657220746f20746865207a65726f2061646460008301527f72657373000000000000000000000000000000000000000000000000000000006020830152604082019050919050565b6000612275601983612ab4565b91507f4552433732313a20617070726f766520746f2063616c6c6572000000000000006000830152602082019050919050565b60006122b5602c83612ab4565b91507f4552433732313a206f70657261746f7220717565727920666f72206e6f6e657860008301527f697374656e7420746f6b656e00000000000000000000000000000000000000006020830152604082019050919050565b600061231b603883612ab4565b91507f4552433732313a20617070726f76652063616c6c6572206973206e6f74206f7760008301527f6e6572206e6f7220617070726f76656420666f7220616c6c00000000000000006020830152604082019050919050565b6000612381602a83612ab4565b91507f4552433732313a2062616c616e636520717565727920666f7220746865207a6560008301527f726f2061646472657373000000000000000000000000000000000000000000006020830152604082019050919050565b60006123e7602983612ab4565b91507f4552433732313a206f776e657220717565727920666f72206e6f6e657869737460008301527f656e7420746f6b656e00000000000000000000000000000000000000000000006020830152604082019050919050565b600061244d602c83612ab4565b91507f4552433732313a20617070726f76656420717565727920666f72206e6f6e657860008301527f697374656e7420746f6b656e00000000000000000000000000000000000000006020830152604082019050919050565b60006124b3602083612ab4565b91507f4f776e61626c653a2063616c6c6572206973206e6f7420746865206f776e65726000830152602082019050919050565b60006124f3602983612ab4565b91507f4552433732313a207472616e73666572206f6620746f6b656e2074686174206960008301527f73206e6f74206f776e00000000000000000000000000000000000000000000006020830152604082019050919050565b6000612559602f83612ab4565b91507f4552433732314d657461646174613a2055524920717565727920666f72206e6f60008301527f6e6578697374656e7420746f6b656e00000000000000000000000000000000006020830152604082019050919050565b60006125bf602183612ab4565b91507f4552433732313a20617070726f76616c20746f2063757272656e74206f776e6560008301527f72000000000000000000000000000000000000000000000000000000000000006020830152604082019050919050565b6000612625603183612ab4565b91507f4552433732313a207472616e736665722063616c6c6572206973206e6f74206f60008301527f776e6572206e6f7220617070726f7665640000000000000000000000000000006020830152604082019050919050565b60a0820160008201516126946000850182612704565b5060208201516126a76020850182612704565b5060408201516126ba60408501826126e6565b5060608201516126cd60608501826126e6565b5060808201516126e06080850182612008565b50505050565b6126ef81612bf5565b82525050565b6126fe81612bf5565b82525050565b61270d81612bff565b82525050565b600061271f8285612105565b915061272b8284612105565b91508190509392505050565b600060208201905061274c6000830184612017565b92915050565b60006080820190506127676000830187612017565b6127746020830186612017565b61278160408301856126f5565b81810360608301526127938184612093565b905095945050505050565b600060208201905081810360008301526127b88184612026565b905092915050565b60006020820190506127d56000830184612084565b92915050565b600060208201905081810360008301526127f581846120cc565b905092915050565b6000602082019050818103600083015261281681612136565b9050919050565b600060208201905081810360008301526128368161219c565b9050919050565b6000602082019050818103600083015261285681612202565b9050919050565b6000602082019050818103600083015261287681612268565b9050919050565b60006020820190508181036000830152612896816122a8565b9050919050565b600060208201905081810360008301526128b68161230e565b9050919050565b600060208201905081810360008301526128d681612374565b9050919050565b600060208201905081810360008301526128f6816123da565b9050919050565b6000602082019050818103600083015261291681612440565b9050919050565b60006020820190508181036000830152612936816124a6565b9050919050565b60006020820190508181036000830152612956816124e6565b9050919050565b600060208201905081810360008301526129768161254c565b9050919050565b60006020820190508181036000830152612996816125b2565b9050919050565b600060208201905081810360008301526129b681612618565b9050919050565b600060a0820190506129d2600083018461267e565b92915050565b60006020820190506129ed60008301846126f5565b92915050565b6000604051905081810181811067ffffffffffffffff82111715612a1a57612a19612d87565b5b8060405250919050565b600067ffffffffffffffff821115612a3f57612a3e612d87565b5b601f19601f8301169050602081019050919050565b6000819050602082019050919050565b600081519050919050565b600081519050919050565b600081519050919050565b6000602082019050919050565b600082825260208201905092915050565b600082825260208201905092915050565b600082825260208201905092915050565b600081905092915050565b6000612adb82612bf5565b9150612ae683612bf5565b9250827fffffffffffffffffffffffffffffffffffffffffffffffffffffffffffffffff03821115612b1b57612b1a612cfa565b5b828201905092915050565b6000612b3182612bf5565b9150612b3c83612bf5565b925082612b4c57612b4b612d29565b5b828204905092915050565b6000612b6282612bf5565b9150612b6d83612bf5565b925082821015612b8057612b7f612cfa565b5b828203905092915050565b6000612b9682612bd5565b9050919050565b60008115159050919050565b60007fffffffff0000000000000000000000000000000000000000000000000000000082169050919050565b600073ffffffffffffffffffffffffffffffffffffffff82169050919050565b6000819050919050565b600060ff82169050919050565b82818337600083830152505050565b60005b83811015612c39578082015181840152602081019050612c1e565b83811115612c48576000848401525b50505050565b60006002820490506001821680612c6657607f821691505b60208210811415612c7a57612c79612d58565b5b50919050565b6000612c8b82612bf5565b91507fffffffffffffffffffffffffffffffffffffffffffffffffffffffffffffffff821415612cbe57612cbd612cfa565b5b600182019050919050565b6000612cd482612bf5565b9150612cdf83612bf5565b925082612cef57612cee612d29565b5b828206905092915050565b7f4e487b7100000000000000000000000000000000000000000000000000000000600052601160045260246000fd5b7f4e487b7100000000000000000000000000000000000000000000000000000000600052601260045260246000fd5b7f4e487b7100000000000000000000000000000000000000000000000000000000600052602260045260246000fd5b7f4e487b7100000000000000000000000000000000000000000000000000000000600052604160045260246000fd5b6000601f19601f8301169050919050565b612dd081612b8b565b8114612ddb57600080fd5b50565b612de781612b9d565b8114612df257600080fd5b50565b612dfe81612ba9565b8114612e0957600080fd5b50565b612e1581612bf5565b8114612e2057600080fd5b50565b612e2c81612bff565b8114612e3757600080fd5b5056fea26469706673582212204c55a44e29af23f1a173d70aafba8c26d7d77b42a9095e6a5b77d149f377f5e164736f6c63430008000033",
  "immutableReferences": {},
  "source": "pragma solidity 0.8.0;\r\n\r\nimport \"../node_modules/@openzeppelin/contracts/token/ERC721/ERC721.sol\";\r\nimport \"../node_modules/@openzeppelin/contracts/access/Ownable.sol\";\r\n\r\n\r\ncontract Token is ERC721, Ownable {\r\n\r\n    struct Pet {\r\n        uint8 damage;\r\n        uint8 magic;\r\n        uint256 lastMeal;\r\n        uint256 endurance;\r\n        address test;\r\n    }\r\n    \r\n    mapping (uint256 => Pet) private _tokenDetails;\r\n\r\n    uint256 nextId = 0;\r\n\r\n\r\n    constructor (string memory name, string memory symbol) ERC721(name, symbol) {\r\n\r\n    }\r\n\r\n    function getTokenDetails(uint256 tokenId) public view returns (Pet memory) {\r\n        return _tokenDetails[tokenId];\r\n    }\r\n\r\n    function mint(uint8 damage, uint8 magic, uint256 endurance) public onlyOwner {\r\n        //_safeMint(msg.senders, nextId);\r\n            \r\n        _tokenDetails[nextId] = Pet(damage, magic, block.timestamp, endurance, msg.sender);\r\n        nextId++;\r\n\r\n    }\r\n\r\n    function feed(uint256 tokenId) public {\r\n         Pet storage pet = _tokenDetails[tokenId];\r\n         //require(pet.lastMeal + pet.endurance > block.timestamp);\r\n         pet.lastMeal = block.timestamp;\r\n    }\r\n\r\n    function getAllTokensForUser(address user) public view returns (uint256[] memory) {\r\n        uint256 tokenCount = balanceOf(user);\r\n        tokenCount = nextId; \r\n        if(tokenCount == 0) {\r\n            uint256[] memory result = new uint256[](1);\r\n            result[0] = 1234;\r\n            return result;\r\n        } else {\r\n            uint256[] memory result = new uint256[](tokenCount);\r\n            uint256 totalPets = nextId;\r\n            uint256 resultIndex = 0;\r\n            uint256 i;\r\n            for(i=0; i<totalPets; i++) {\r\n                 //if(ownerOf(i) == user) {\r\n                    result[resultIndex] = i;\r\n                    resultIndex++;\r\n                 //}\r\n            }\r\n            return result;\r\n        }\r\n    }\r\n\r\n    function _beforeTokenTransfer(address from, address to, uint256 tokenId) internal override {\r\n        Pet storage pet = _tokenDetails[nextId];\r\n        require(pet.lastMeal + pet.endurance > block.timestamp);\r\n\r\n    }\r\n    \r\n\r\n\r\n}\r\n",
  "sourcePath": "C:\\ws\\nft\\contracts\\Token.sol",
  "compiler": {
    "name": "solc",
    "version": "0.8.0+commit.c7dfd78e.Emscripten.clang"
  },
  "schemaVersion": "3.4.3",
  "updatedAt": "2021-08-30T21:08:53.406Z",
  "networkType": "ethereum",
  "devdoc": {
    "kind": "dev",
    "methods": {
      "approve(address,uint256)": {
        "details": "See {IERC721-approve}."
      },
      "balanceOf(address)": {
        "details": "See {IERC721-balanceOf}."
      },
      "getApproved(uint256)": {
        "details": "See {IERC721-getApproved}."
      },
      "isApprovedForAll(address,address)": {
        "details": "See {IERC721-isApprovedForAll}."
      },
      "name()": {
        "details": "See {IERC721Metadata-name}."
      },
      "owner()": {
        "details": "Returns the address of the current owner."
      },
      "ownerOf(uint256)": {
        "details": "See {IERC721-ownerOf}."
      },
      "renounceOwnership()": {
        "details": "Leaves the contract without owner. It will not be possible to call `onlyOwner` functions anymore. Can only be called by the current owner. NOTE: Renouncing ownership will leave the contract without an owner, thereby removing any functionality that is only available to the owner."
      },
      "safeTransferFrom(address,address,uint256)": {
        "details": "See {IERC721-safeTransferFrom}."
      },
      "safeTransferFrom(address,address,uint256,bytes)": {
        "details": "See {IERC721-safeTransferFrom}."
      },
      "setApprovalForAll(address,bool)": {
        "details": "See {IERC721-setApprovalForAll}."
      },
      "supportsInterface(bytes4)": {
        "details": "See {IERC165-supportsInterface}."
      },
      "symbol()": {
        "details": "See {IERC721Metadata-symbol}."
      },
      "tokenURI(uint256)": {
        "details": "See {IERC721Metadata-tokenURI}."
      },
      "transferFrom(address,address,uint256)": {
        "details": "See {IERC721-transferFrom}."
      },
      "transferOwnership(address)": {
        "details": "Transfers ownership of the contract to a new account (`newOwner`). Can only be called by the current owner."
      }
    },
    "version": 1
  },
  "userdoc": {
    "kind": "user",
    "methods": {},
    "version": 1
  }
}